:020000040000FA
:06080000C9EF1EF012001A
:02080600B93700
:060808007FEF17F0120063
:02080E000600E2
:10081000C33E00008201000004000000BF3E000053
:100820007E01000004000000BB3E0000ED07000058
:10083000040000000608000086010000020000001D
:10084000263E00000007000095000000183E000052
:08085000590100000E00000038
:0808E800D9CFE6FFE1CFD9FFF3
:1008F000FD0EDB50AD6ECAEC19F0E552E7CFD9FF23
:100900001200D9CFE6FFE1CFD9FF080EE126DE6A5B
:10091000DD6A200EF36E020EF3CFDBFF030EDB6AFF
:10092000FB0EDBCF2BF0FC0EDBCF2CF02C50000AA3
:10093000E8AE02D02C3405D0000ED8802B54000E27
:100940002C545AE2040EDB6A050EDB6AFD0EDBCF87
:100950001DF0FE0EDBCF1EF0060E1DC0DBFF070EE6
:100960001EC0DBFF060EDBCFE9FF070EDBCFEAFF81
:10097000EF500BE0040EDB2A050E01E3DB2A060E26
:10098000DB2A070E01E3DB2AEDD7040EDBCF2BF0C9
:10099000050EDBCF2CF0FB0EDBCF2DF0FC0EDBCFFA
:1009A0002EF02C502E18E8AE02D02E3404D02D504C
:1009B0002B5C2E502C5805E3FB0EDB6AFC0EDB6A29
:1009C00010D0040EDBCF2BF0050EDBCF2CF0D9506E
:1009D000FB0FE96EFF0EDA20EA6E2B50EE5E2C5014
:1009E000ED5AF90EDB50020B07E0300EF36E020EEB
:1009F000F3CFDBFF030EDB6AF90EDB50010B25E1C1
:100A0000FB0EDBCF2BF0FC0EDBCF2CF02C50000AC2
:100A1000E8AE02D02C3405D0000ED8802B54000E46
:100A20002C5413E2020EDBCFE6FF030EDBCFE6FF12
:100A30005BDFE552E552DF2A010E01E3DB2AFB0E04
:100A4000DB06FC0E01E2DB06DBD7FD0EDBCFE9FFA8
:100A5000FE0EDBCFEAFFEF501CE0FD0EDBCFE9FF1F
:100A6000FE0EDBCFEAFFEFCF2BF02C6A2BBE2C68FB
:100A70002BC0E6FF2CC0E6FF37DFE552E552DF2A48
:100A8000010E01E3DB2AFD0EDB2AFE0E01E3DB2A69
:100A9000DCD7FB0EDBCF2BF0FC0EDBCF2CF02C5089
:100AA000000AE8AE02D02C3405D0000ED8802B54BA
:100AB000000E2C5413E2020EDBCFE6FF030EDBCF59
:100AC000E6FF12DFE552E552DF2A010E01E3DB2AE1
:100AD000FB0EDB06FC0E01E2DB06DBD7DECF2BF0E4
:100AE000DDCF2CF02BC0F3FF2CC0F4FF00D0D9CF0A
:100AF000E1FFE552E7CFD9FF1200D9CFE6FFE1CF02
:100B0000D9FF0A0EE126040EDB6A050EDB6A060E2B
:100B1000DB6A070EDB6AFD0EDBCF1DF0FE0EDBCFBE
:100B20001EF0080E1DC0DBFF090E1EC0DBFF010119
:100B3000BE0E416FEF0E556FD950FD0FE96EFF0EDF
:100B4000DA20EA6EEE50ED1019E1300E416F426B83
:100B5000F50EDBCFE6FFF60EDBCFE6FFF70EDBCFC1
:100B6000E6FFF80EDBCFE6FF410EE66E010EE66E05
:100B7000C8DEF56E060EE15EF55026D1D950F90FAC
:100B8000E96EFF0EDA20EA6EEE50ED102CE0D9503F
:100B9000FB0FE96EFF0EDA20EA6E0A0EEE1801E195
:100BA000ED5021E1FD0EDBCF2BF0FE0EDBCF2CF064
:100BB0000001800E2C1517E0010EF36E040EF3CF2A
:100BC000DBFF050EDB6A1D681E68FD0EDBCF22F021
:100BD000FE0EDBCF23F0E5EC1CF0080E1BC0DBFFA4
:100BE000090E1CC0DBFF550E2B6E010E2C6E2B0662
:100BF000000E2C5A2BC0DEFF2CC0DDFFDECFE9FF3C
:100C0000DDCFEAFFEF6AD950080FE96EDACFEAFFCD
:100C1000EE50ED1072E0080EDBCF1DF0090EDBCFB9
:100C20001EF0FB0EDBCF22F0FC0EDBCF23F09FEC9F
:100C30001EF0020E19C0DBFF030E1AC0DBFF020E0E
:100C4000DBCF2BF0030EDBCF2CF02C50000AE8AEEC
:100C500002D0D89004D00A0E2B5C000E2C5817E35B
:100C6000F30EDBCF2BF0F40EDBCF2CF0300E2B5E2F
:100C7000000E2C5A0A0E2B5E000E2C5AD950020F71
:100C8000E96EDACFEAFF2B50EE262C50ED22300E23
:100C9000E76E020EDBCF2BF0030EDBCF2CF0E7501C
:100CA0002B26000E2C22D9CFE9FFDACFEAFFEE0681
:100CB000ED5AEECFF3FFEDCFF4FFF3CFE9FFF4CF22
:100CC000EAFF2BC0EFFFFB0EDBCF2BF0FC0EDBCFE0
:100CD0002CF0D950080FE96EDACFEAFF2BC022F0D2
:100CE0002CC023F0EECF1DF0EDCF1EF09FEC1EF0D8
:100CF0001DC0EEFF1EC0EDFF86D7D950040FE96E70
:100D0000DACFEAFFEE50ED102FE0D950F70FE96E81
:100D1000FF0EDA20EA6EEE50ED1015E0F50EDB5016
:100D2000020B11E02D0EE66EE66ADEDDE552E552BD
:100D3000060EDB2A070E01E3DB2AF70EDB06F80EB0
:100D400001E2DB0611D0D9CFE9FFDACFEAFFEE06E8
:100D5000000EED5AEECFF3FFEDCFF4FFF3CFE9FF36
:100D6000F4CFEAFF2D0EEF6E060EDBCF2DF0070E4F
:100D7000DBCF2EF02DC0E6FF2EC0E6FFF50EDBCF59
:100D8000E6FFF60EDBCFE6FFF70EDBCFE6FFF80E51
:100D9000DBCFE6FFDECFE6FFDDCFE6FFB2DDF56EAF
:100DA000060EE15EF550E552E7CF2EF0E552E7CFB3
:100DB0002DF02D50F3242B6E2E50F4202C6E2BC0D2
:100DC000F3FF2CC0F4FF00D0D9CFE1FFE552E7CF0D
:100DD000D9FF1200D9CFE6FFE1CFD9FF2E0EE126D1
:100DE0002C0EDB6A2D0EDB6AFD0EDBCFE9FFFE0E5B
:100DF000DBCFEAFFEF5001E119D3FD0EDBCFE9FFB6
:100E0000FE0EDBCFEAFFEF50250801E0E0D2FD0E39
:100E1000DB2AFE0E01E3DB2A2A0EDB6A2B0EDB6ADD
:100E2000D950280FE96EDACFEAFFEE6AED6AFD0EBF
:100E3000DBCFE9FFFE0EDBCFEAFFEF5001E1F6D298
:100E4000FD0EDBCFE9FFFE0EDBCFEAFFEF502508FA
:100E500001E1BDD2FD0EDBCFE9FFFE0EDBCFEAFFE5
:100E6000EF502D080CE1FD0EDB2AFE0E01E3DB2A1C
:100E7000010EF36E2A0EF3CFDBFF2B0EDB6AFD0EA5
:100E8000DBCFE9FFFE0EDBCFEAFFEF5030080DE1CC
:100E9000FD0EDB2AFE0E01E3DB2AD9502A0FE96E94
:100EA000DACFEAFFEE82ED52EAD7FD0EDBCFE9FFA3
:100EB000FE0EDBCFEAFFEFCF2BF0300E2B5C30E3E2
:100EC000FD0EDBCFE9FFFE0EDBCFEAFFEF50390866
:100ED00027E3D950280FE96EDACFEAFF0A0EEC02B9
:100EE000F3CFEDFFEF02F3CFEEFFF450ED26FD0E52
:100EF000DBCFE9FFFE0EDBCFEAFFEF50D00F2B6E0A
:100F00002C6AD950280FE96EDACFEAFF2B50EE2673
:100F10002C50ED22FD0EDB2AFE0E01E3DB2AC5D7A5
:100F2000FD0EDBCFE9FFFE0EDBCFEAFFEF507308CB
:100F300061E1D950FB0FE96EFF0EDA20EA6EEECFC9
:100F4000F3FFEDCFF4FF020EEE5E000EEF5AF3CF8B
:100F5000E9FFF4CFEAFFEECF2BF0EFCF2CF02D6AB4
:100F60002BC0E6FF2CC0E6FF2DC0E6FFD9CFE6FF81
:100F7000DACFE6FF5FEC1EF0F56E050EE15EF55090
:100F8000DF5015E186C12BF087C12CF02D6A2BC0F4
:100F9000E6FF2CC0E6FF2DC0E6FFD9CFE6FFDACF93
:100FA000E6FF5FEC1EF0F56E050EE15EF5502A0ED1
:100FB000DBCFE6FF2B0EDBCFE6FF280EDBCFE6FF15
:100FC000290EDBCFE6FFD9CFE6FFDACFE6FF99DCCB
:100FD000F56E060EE15EF550F3CF2BF0F4CF2CF05A
:100FE000D9502C0FE96EDACFEAFF2B50EE262C50A9
:100FF000ED2216D2FD0EDBCFE9FFFE0EDBCFEAFFBE
:10100000EF5064083EE1610EE66EE66A2A0EDBCF21
:10101000E6FF2B0EDBCFE6FF280EDBCFE6FF290E27
:10102000DBCFE6FF010EE66EE66A0A0EE66EE66AC2
:10103000D950FB0FE96EFF0EDA20EA6EEECFF3FF18
:10104000EDCFF4FF020EEE5E000EEF5AF3CFE9FF94
:10105000F4CFEAFFEECFE6FFEFCFE6FF4EDDF56E11
:101060000C0EE15EF550F3CF2BF0F4CF2CF0D950FD
:101070002C0FE96EDACFEAFF2B50EE262C50ED2232
:10108000CFD1FD0EDBCFE9FFFE0EDBCFEAFFEF5045
:1010900078083EE1610EE66EE66A2A0EDBCFE6FFD7
:1010A0002B0EDBCFE6FF280EDBCFE6FF290EDBCFD2
:1010B000E6FF000EE66EE66A100EE66EE66AD950AE
:1010C000FB0FE96EFF0EDA20EA6EEECFF3FFEDCFF5
:1010D000F4FF020EEE5E000EEF5AF3CFE9FFF4CFFD
:1010E000EAFFEECFE6FFEFCFE6FF07DDF56E0C0E71
:1010F000E15EF550F3CF2BF0F4CF2CF0D9502C0F4C
:10110000E96EDACFEAFF2B50EE262C50ED2288D183
:10111000FD0EDBCFE9FFFE0EDBCFEAFFEF505808F4
:101120003EE1410EE66EE66A2A0EDBCFE6FF2B0EAD
:10113000DBCFE6FF280EDBCFE6FF290EDBCFE6FF95
:10114000000EE66EE66A100EE66EE66AD950FB0FF8
:10115000E96EFF0EDA20EA6EEECFF3FFEDCFF4FF7B
:10116000020EEE5E000EEF5AF3CFE9FFF4CFEAFF76
:10117000EECFE6FFEFCFE6FFC0DCF56E0C0EE15ED2
:10118000F550F3CF2BF0F4CF2CF0D9502C0FE96EA3
:10119000DACFEAFF2B50EE262C50ED2241D1FD0E86
:1011A000DBCFE9FFFE0EDBCFEAFFEF5075083EE133
:1011B000610EE66EE66A2A0EDBCFE6FF2B0EDBCF72
:1011C000E6FF280EDBCFE6FF290EDBCFE6FF000EA1
:1011D000E66EE66A0A0EE66EE66AD950FB0FE96E25
:1011E000FF0EDA20EA6EEECFF3FFEDCFF4FF020E32
:1011F000EE5E000EEF5AF3CFE9FFF4CFEAFFEECF39
:10120000E6FFEFCFE6FF79DCF56E0C0EE15EF55000
:10121000F3CF2BF0F4CF2CF0D9502C0FE96EDACFAE
:10122000EAFF2B50EE262C50ED22FAD0FD0EDBCF3C
:10123000E9FFFE0EDBCFEAFFEF506C0801E081D042
:10124000610EE66EE66A2A0EDBCFE6FF2B0EDBCFE1
:10125000E6FF280EDBCFE6FF290EDBCFE6FF000E10
:10126000E66EE66A100EE66EE66AD950FB0FE96E8E
:10127000FF0EDA20EA6EEECFF3FFEDCFF4FF020EA1
:10128000EE5E000EEF5AF3CFE9FFF4CFEAFFEECFA8
:10129000E6FFEFCFE6FF31DCF56E0C0EE15EF550B8
:1012A000F3CF2BF0F4CF2CF0D9502C0FE96EDACF1E
:1012B000EAFF2B50EE262C50ED22610EE66EE66A18
:1012C0002A0EDBCFE6FF2B0EDBCFE6FF280EDBCFAF
:1012D000E6FF290EDBCFE6FF000EE66EE66A100E93
:1012E000E66EE66AD950FB0FE96EFF0EDA20EA6E71
:1012F000EECFF3FFEDCFF4FF020EEE5E000EEF5ADD
:10130000F3CFE9FFF4CFEAFFEECFE6FFEFCFE6FF42
:101310007DEC05F0F56E0C0EE15EF550F3CF2BF091
:10132000F4CF2CF0D9502C0FE96EDACFEAFF2B5016
:10133000EE262C50ED22FD0EDB2AFE0E01E3DB2A09
:101340006FD0FD0EDBCFE9FFFE0EDBCFEAFFEF50E3
:1013500062083CE1610EE66EE66A020EE66EE66A3F
:10136000280EDBCFE6FF290EDBCFE6FF000EE66E90
:10137000E66A020EE66EE66AD950FB0FE96EFF0ED2
:10138000DA20EA6EEECFF3FFEDCFF4FF020EEE5E51
:10139000000EEF5AF3CFE9FFF4CFEAFFEECFE6FFFE
:1013A000EFCFE6FF7DEC05F0F56E0C0EE15EF5503B
:1013B000F3CF2BF0F4CF2CF0D9502C0FE96EDACF0D
:1013C000EAFF2B50EE262C50ED222AD029D0FD0E1C
:1013D000DBCFE9FFFE0EDBCFEAFFEF500A0808E1A2
:1013E000FD0EDBCFE9FFFE0EDBCFEAFF0D0EEF6E49
:1013F000FD0EDBCFE9FFFE0EDBCFEAFFEFCF2BF0D8
:101400002C6A2BBE2C682BC0E6FF2CC0E6FF74ECC8
:1014100004F0E552E5522C0EDB2A2D0E01E3DB2A07
:10142000FD0EDB2AFE0E01E3DB2ADED42C0EDBCF21
:101430002BF02D0EDBCF2CF02BC0F3FF2CC0F4FFD4
:1014400000D0D9CFE1FFE552E7CFD9FF1200D9CFC5
:10145000E6FFE1CFD9FF020EE126D950FD0F2B6E3A
:10146000FF0EDA202C6E2BC0DEFF2CC0DDFFFD0E40
:10147000DBCF2BF0FE0EDBCF2CF02D6A2BC0E6FF6E
:101480002CC0E6FF2DC0E6FF950EE66E070EE66E59
:101490005FEC1EF0F56E050EE15EF550D9CFE9FF69
:1014A000DACFEAFF020EEE5E000EEF5ADECFE6FF65
:1014B000DDCFE6FF950EE66E070EE66E8BDCE5529D
:1014C000E552E552E55200D0D9CFE1FFE552E7CF32
:1014D000D9FF1200D9CFE6FFE1CFD9FF610EE66E4A
:1014E000E66A020EE66EE66A040EE66EE66A010E33
:1014F000E66EE66A0A0EE66EE66AFD0EDBCFE6FFF2
:10150000FE0EDBCFE6FF7DEC05F0F56E0C0EE15E26
:10151000F550D950FB0FE96EFF0EDA20EA6EEE505F
:10152000ED1007E00D0EE66EE66A74EC04F0E5528D
:10153000E552E552E7CFD9FF1200D9CFE6FFE1CF60
:10154000D9FF610EE66EE66A020EE66EE66A030EEB
:10155000E66EE66A010EE66EE66A0A0EE66EE66A78
:10156000FE0EDBCFE6FFE66A7DEC05F0F56E0C0EB5
:10157000E15EF550D950FC0FE96EFF0EDA20EA6EFD
:10158000EE50ED1007E00D0EE66EE66A74EC04F026
:10159000E552E552E552E7CFD9FF1200D9CFE6FF79
:1015A000E1CFD9FF610EE66EE66A020EE66EE66AEC
:1015B000100EE66EE66A000EE66EE66A020EE66E53
:1015C000E66AFD0EDBCFE6FFFE0EDBCFE6FF7DEC2D
:1015D00005F0F56E0C0EE15EF550D950FB0FE96E8B
:1015E000FF0EDA20EA6EEE50ED1007E00D0EE66E0B
:1015F000E66A74EC04F0E552E552E552E7CFD9FF14
:101600001200D9CFE6FFE1CFD9FF610EE66EE66AA0
:10161000020EE66EE66A080EE66EE66A000EE66EFA
:10162000E66A020EE66EE66AFE0EDBCFE6FFE66ACB
:101630007DEC05F0F56E0C0EE15EF550D950FC0F17
:10164000E96EFF0EDA20EA6EEE50ED1007E00D0EA7
:10165000E66EE66A74EC04F0E552E552E552E7CF37
:10166000D9FF1200D9CFE6FFE1CFD9FF610EE66EB8
:10167000E66A000EE66EE66A020EE66EE66A000EA6
:10168000E66EE66A100EE66EE66AFD0EDBCFE6FF5A
:10169000FE0EDBCFE6FF7DEC05F0F56E0C0EE15E95
:1016A000F550D950FB0FE96EFF0EDA20EA6EEE50CE
:1016B000ED1007E00D0EE66EE66A74EC04F0E552FC
:1016C000E552E552E7CFD9FF1200D9CFE6FFE1CFCF
:1016D000D9FF610EE66EE66A020EE66EE66AE66E17
:1016E000E66A000EE66EE66A100EE66EE66AFE0E2A
:1016F000DBCFE6FFE66A7DEC05F0F56E0C0EE15EF1
:10170000F550D950FC0FE96EFF0EDA20EA6EEE506C
:10171000ED1007E00D0EE66EE66A74EC04F0E5529B
:10172000E552E552E7CFD9FF1200D9CFE6FFE1CF6E
:10173000D9FFFD0EDBCF2BF0FE0EDBCF2CF02D6A98
:101740002BC0E6FF2CC0E6FF2DC0E6FF950EE66E2F
:10175000070EE66E5FEC1EF0F56E050EE15EF550CD
:101760000101576B586B950EE66E070EE66E78EC2E
:101770001EF0E552E552F3CF2BF0F4CF2CF001012F
:101780002B50575D2C50585918E2950E5725E96E8D
:10179000070E5821EA6EEFCF2BF02C6A2BBE2C6877
:1017A0002BC0E6FF2CC0E6FF74EC04F0E552E552D6
:1017B0000101572B000E5823D6D7010EE66EE66ABC
:1017C000FB0EDBCFE6FFFC0EDBCFE6FF4BDFE55287
:1017D000E552E552E552E552E7CFD9FF1200D9CFE5
:1017E000E6FFE1CFD9FFFD0EDBCF2BF0FE0EDBCF06
:1017F0002CF02D6A2BC0E6FF2CC0E6FF2DC0E6FFC3
:10180000950EE66E070EE66E5FEC1EF0F56E050EA9
:10181000E15EF5500101576B586B950EE66E070EB1
:10182000E66E78EC1EF0E552E552F3CF2BF0F4CFE4
:101830002CF001012B50575D2C50585918E2950E91
:101840005725E96E070E5821EA6EEFCF2BF02C6A70
:101850002BBE2C682BC0E6FF2CC0E6FF74EC04F016
:10186000E552E5520101572B000E5823D6D7010E41
:10187000E66EE66AFB0EDBCFE6FFFC0EDBCFE6FF93
:101880008DDEE552E552E552E552E552E7CFD9FF4C
:101890001200D9CFE6FFE1CFD9FFFD0EDBCF2BF051
:1018A000FE0EDBCF2CF02D6A2BC0E6FF2CC0E6FF2E
:1018B0002DC0E6FF950EE66E070EE66E5FEC1EF09D
:1018C000F56E050EE15EF5500101576B586B950EF4
:1018D000E66E070EE66E78EC1EF0E552E552F3CFA9
:1018E0002BF0F4CF2CF001012B50575D2C505859A0
:1018F00018E2950E5725E96E070E5821EA6EEFCFD4
:101900002BF02C6A2BBE2C682BC0E6FF2CC0E6FF08
:1019100074EC04F0E552E5520101572B000E5823F8
:0A192000D6D7E552E7CFD9FF120039
:06192A00200EE66E010E26
:10193000E66E7BEC18F0E552E55207010FC72BF07D
:1019400010C72CF00F2B000E10232C50000AE8AE0D
:1019500002D02C3405D0260ED8802B54000E2C54E7
:1019600004E20F6B106BEDEC12F00EDBF3CF07F718
:10197000F4CF08F7A3EC1DF08850800B02E08C9E9A
:1019800001D08C8E919081DA0701000501E11ED90A
:101990000701010505E127C104F129C106F138D08D
:1019A000010127512E6AD00F2D6E070E2E222B51CA
:1019B00000012D242B6F000E2E202C6F7F0E2B5E2E
:1019C000000E2C5A2BC0E6FF2CC0E6FF46DBE5528A
:1019D000E5520101066F010127512E6AD00F2D6ECD
:1019E000070E2E222B512F6E306A2F502D5C2B6E3E
:1019F00030502E582C6E7F0E2B26000E2C222BC022
:101A0000E6FF2CC0E6FF29DBE552E5520101046F39
:101A10000701025101E058D904C105F106C107F1DF
:101A2000D3DB010107512B6E2C6AFF0ED8802B5699
:101A3000000E2C562BC007F105512B6E2C6AFF0EA1
:101A4000D8802B56000E2C562BC005F106512B6E5C
:101A50002C6AFF0ED8802B56000E2C562BC006F198
:101A600004512B6E2C6AFF0ED8802B56000E2C567C
:101A70002BC004F101012351020B04E12351200B7F
:101A800001E199D0010107517F080FE27F0E075D48
:101A90002B6E060E2C6E2CC023F02BC01EF0E9EC32
:101AA0001EF01E507F0F0101076F7F0E075D11E2D0
:101AB0007F0E2B6ED88007552C6E060E2D6E2DC016
:101AC00023F02CC01EF0E9EC1EF01E502B5C01012F
:101AD000076F05517F080FE27F0E055D2B6E060E26
:101AE0002C6E2CC023F02BC01EF0E9EC1EF01E5013
:101AF0007F0F0101056F7F0E055D11E27F0E2B6EDA
:101B0000D88005552C6E060E2D6E2DC023F02CC0EE
:101B10001EF0E9EC1EF01E502B5C0101056F065112
:101B20007F080FE27F0E065D2B6E060E2C6E2CC01A
:101B300023F02BC01EF0E9EC1EF01E507F0F0101B8
:101B4000066F7F0E065D11E27F0E2B6ED880065564
:101B50002C6E060E2D6E2DC023F02CC01EF0E9EC6D
:101B60001EF01E502B5C0101066F04517F080FE22E
:101B70007F0E045D2B6E060E2C6E2CC023F02BC046
:101B80001EF0E9EC1EF01E507F0F0101046F7F0E66
:101B9000045D11E27F0E2B6ED88004552C6E060E6C
:101BA0002D6E2DC023F02CC01EF0E9EC1EF01E504F
:101BB0002B5C0101046F9DEC1DF0000EE66E010E22
:101BC000E66EB5EC18F0E552E55212007F0E010109
:101BD0002B5D0FE27F0ED8802B55EA6A110FE96E5C
:101BE000070EEA22EFCF2BF17F0ED8802B552B6FFB
:101BF0000CD07F0E2B5DEA6A110FE96E070EEA2208
:101C0000EFCF2BF17F0E2B252B6F7F0E275D0FE281
:101C10007F0ED8802755EA6A110FE96E070EEA2277
:101C2000EFCF27F17F0ED8802755276F0CD07F0E7E
:101C3000275DEA6A110FE96E070EEA22EFCF27F15E
:101C40007F0E2725276F070101053DE17F0E01016A
:101C50002D5D0FE27F0ED8802D55EA6A110FE96ED7
:101C6000070EEA22EFCF2DF17F0ED8802D552D6F74
:101C70000CD07F0E2D5DEA6A110FE96E070EEA2285
:101C8000EFCF2DF17F0E2D252D6F7F0E295D0FE2F9
:101C90007F0ED8802955EA6A110FE96E070EEA22F5
:101CA000EFCF29F17F0ED8802955296F0CD07F0EF8
:101CB000295DEA6A110FE96E070EEA22EFCF29F1DA
:101CC0007F0E2925296F1200010104512B6E2C6A09
:101CD000070106512C18E8AE02D02C3404D02B504A
:101CE000055D2C50065923E2010104512B6E2C6A2C
:101CF000070102512E6A05252D6E06512E222E5007
:101D00002C18E8AE02D02C3404D02B502D5C2C5073
:101D10002E5808E202512B6E2C6A2B5005272C50AE
:101D2000062305D0010104510701056F066B01016F
:101D300004512B6E2C6A07012C500619E8AE02D014
:101D4000063504D005512B5C06512C5826E20101C2
:101D500004512B6E2C6A070102512F6E306A2F50EE
:101D6000055D2D6E305006592E6E2C502E18E8AEA3
:101D700002D02E3404D02D502B5C2E502C5808E26B
:101D800002512B6E2C6A2B50055F2C50065B05D040
:101D9000010104510701056F066B010106512B6E0D
:101DA0002C6A070104512C18E8AE02D02C3404D060
:101DB0002B50035D2C50045923E2010106512B6E78
:101DC0002C6A070102512E6A03252D6E04512E2222
:101DD0002E502C18E8AE02D02C3404D02B502D5CA1
:101DE0002C502E5808E202512B6E2C6A2B500327E0
:101DF0002C50042305D0010106510701036F046B29
:101E0000010106512B6E2C6A07012C500419E8AE13
:101E100002D0043504D003512B5C04512C5826E227
:101E2000010106512B6E2C6A070102512F6E306A98
:101E30002F50035D2D6E305004592E6E2C502E18ED
:101E4000E8AE02D02E3404D02D502B5C2E502C58EE
:101E500008E202512B6E2C6A2B50035F2C50045B5E
:101E600005D0010106510701036F046B05C704F19A
:101E700003C706F1120001017F0E046F066F070110
:101E8000056F066B036F046B120001010091009354
:101E90007C0E01012B5D11E32B512B6E2C6A2C5013
:101EA000000AE8AE02D02C3405D0820ED8802B5424
:101EB000000E2C5402E3010100837C0E0101275D1A
:101EC00011E327512B6E2C6A2C50000AE8AE02D089
:101ED0002C3405D0820ED8802B54000E2C5402E3F3
:101EE000010100810101009500977C0E01012D5D2B
:101EF00011E32D512B6E2C6A2C50000AE8AE02D053
:101F00002C3405D0820ED8802B54000E2C5402E3C2
:101F1000010100877C0E0101295D11E329512B6E1F
:101F20002C6A2C50000AE8AE02D02C3405D0820E68
:101F3000D8802B54000E2C5402E3010100850101CE
:101F40005A51000AE8AE02D05A3505D0640ED88046
:101F50005955000E5A5503E20101008902D00101D2
:101F6000009901015C51000AE8AE02D05C3505D051
:101F7000640ED8805B55000E5C5503E20101008BB6
:101F800002D00101009B1200D9CFE6FFE1CFD9FFBB
:101F9000020EE126DE6ADD6A88BC04D0080EDE2669
:101FA000000EDD2288BA04D0040EDE26000EDD22EB
:101FB00088B804D0020EDE26000EDD2282B004D0E6
:101FC000010EDE26000EDD22DECF2BF0DDCF2CF061
:101FD0002BC0F3FF2CC0F4FF00D0D9CFE1FFE552B6
:101FE000E7CFD9FF1200D9CFE6FFE1CFD9FFFE0E30
:101FF000DB5011E1FC0EDBCFE9FFFD0EDBCFEAFF8A
:10200000EF507F0808E2FC0EDBCFE9FFFD0EDBCFCF
:10201000EAFF7F0EEF6EE552E7CFD9FF1200D9CF6E
:10202000E6FFE1CFD9FFFE0EDB5013E1FC0EDBCF64
:10203000E9FFFD0EDBCFEAFFEFCF2BF07F0E2B5C2D
:1020400008E2FC0EDBCFE9FFFD0EDBCFEAFF7F0EDF
:10205000EF6EE552E7CFD9FF1200D9CFE6FFE1CF0F
:10206000D9FFFD0EDBCF2BF0FE0EDBCF2CF02C507A
:10207000070AE8AE02D0D89004D0D00E2B5C070E31
:102080002C5806E20701D00EF16F070EF26F1ED03A
:10209000FD0EDBCF2BF0FE0EDBCF2CF02C50080A10
:1020A000E8AE02D02C3405D0CE0ED8802B54080ECA
:1020B0002C5406E20701CE0EF16F080EF26F06D027
:1020C000FD0EDBCFF1F7FE0EDBCFF2F7F1C72BF001
:1020D000F2C72CF0D00E2B5E070E2C5A2B5000D0DE
:1020E000E552E7CFD9FF1200D9CFE6FFE1CFD9FF04
:1020F000020EE126960EDE6E370EDD6EF00EE66EF7
:10210000C6EC1AF0E552938A938893869384998259
:102110009980938E938C9A849A82998699849A8ACC
:102120009A8894809A869A8E9A8C01017F0E0B6F02
:102130000BC10AF10BC109F10BC108F10BC107F189
:102140000BC106F10BC105F10BC104F1136F13C1F3
:1021500012F113C111F113C110F113C10FF113C129
:102160000EF113C10DF113C10CF1000EE66EE66A1B
:10217000E66EE66AE66EE66AE66EE66AFFEC18F080
:10218000F56E080EE15EF550B8EC1AF0000EE66E42
:10219000010EE66EB5EC18F0E552E5521AEC18F0B7
:1021A000DECFE6FFDDCFE6FF920EE66E370EE66E7F
:1021B00027EC0AF0E552E552E552E552D9CFE1FFAE
:1021C000E552E7CFD9FF1200020EE66ED1EC1AF00D
:1021D000E552F3CF91F7F4CF92F7010EE66ED1EC12
:1021E0001AF0E552F3CF93F7F4CF94F701010751BA
:1021F0007F0801E37AD007019251030AE8AE02D0CA
:10220000923505D0260ED8809155030E92556DE279
:10221000010107512D6E2E6A91C72FF092C730F041
:10222000FA0E2F5E010E305A030E226E236A2FC063
:102230001DF030C01EF0BFEC1CF01DC02FF01EC002
:1022400030F02F502D5C2B6E30502E582C6E2C50B1
:10225000000AE8AE02D02C3405D07F0ED8802B5473
:10226000000E2C5419E291C72BF092C72CF0FA0EF5
:102270002B5E010E2C5A030E226E236A2BC01DF01A
:102280002CC01EF0BFEC1CF01DC02BF01EC02CF0AB
:102290002B500101075F03D001017F0E076F07512B
:1022A000E66EE66A91C72BF092C72CF0FA0E2B5E11
:1022B000010E2C5A050E226E236A2BC01DF02CC075
:1022C0001EF0BFEC1CF01DC02BF01EC02CF02BC06C
:1022D000E6FF2CC0E6FF580EE66E370EE66E27ECE2
:1022E0000AF0F56E060EE15EF5507F0E0101075D06
:1022F00001E377D0CE0E070192AF02D0D89003D081
:10230000915D000E92596DE291C72DF092C72EF0AB
:10231000FA0ED8802D56010E2E56030E226E236A19
:102320002DC01DF02EC01EF0BFEC1CF01DC02DF006
:102330001EC02EF00101075100012C6B2D242B6FC4
:102340002E502C232C50000AE8AE02D0D89004D096
:102350007F0E2B5C000E2C581AE291C72BF092C70F
:102360002CF0FA0ED8802B56010E2C56030E226E3E
:10237000236A2BC01DF02CC01EF0BFEC1CF01DC04A
:102380002BF01EC02CF02B500101072703D00101B8
:102390007F0E076F0751E66EE66A91C72BF092C772
:1023A0002CF0FA0ED8802B56010E2C56050E226EFC
:1023B000236A2BC01DF02CC01EF0BFEC1CF01DC00A
:1023C0002BF01EC02CF02BC0E6FF2CC0E6FF1E0E2B
:1023D000E66E370EE66E27EC0AF0F56E060EE15E4D
:1023E000F550010105517F0801E37AD007019451AE
:1023F000030AE8AE02D0943505D0260ED880935556
:10240000030E94556DE2010105512D6E2E6A93C79E
:102410002FF094C730F0FA0E2F5E010E305A030EE3
:10242000226E236A2FC01DF030C01EF0BFEC1CF0DE
:102430001DC02FF01EC030F02F502D5C2B6E305081
:102440002E582C6E2C50000AE8AE02D02C3405D049
:102450007F0ED8802B54000E2C5419E293C72BF01A
:1024600094C72CF0FA0E2B5E010E2C5A030E226E2E
:10247000236A2BC01DF02CC01EF0BFEC1CF01DC049
:102480002BF01EC02CF02B500101055F03D0010181
:102490007F0E056F0551E66EE66A93C72BF094C771
:1024A0002CF0FA0E2B5E010E2C5A050E226E236ABA
:1024B0002BC01DF02CC01EF0BFEC1CF01DC02BF07B
:1024C0001EC02CF02BC0E6FF2CC0E6FFE50EE66E2A
:1024D000360EE66E27EC0AF0F56E060EE15EF5505C
:1024E0007F0E0101055D01E377D0CE0E070194AFA9
:1024F00002D0D89003D0935D000E94596DE293C73B
:102500002DF094C72EF0FA0ED8802D56010E2E56BF
:10251000030E226E236A2DC01DF02EC01EF0BFECEC
:102520001CF01DC02DF01EC02EF001010551000150
:102530002C6B2D242B6F2E502C232C50000AE8AE30
:1025400002D0D89004D07F0E2B5C000E2C581AE2DB
:1025500093C72BF094C72CF0FA0ED8802B56010E9F
:102560002C56030E226E236A2BC01DF02CC01EF0C9
:10257000BFEC1CF01DC02BF01EC02CF02B50010135
:10258000052703D001017F0E056F0551E66EE66A4F
:1025900093C72BF094C72CF0FA0ED8802B56010E5F
:1025A0002C56050E226E236A2BC01DF02CC01EF087
:1025B000BFEC1CF01DC02BF01EC02CF02BC0E6FFA2
:1025C0002CC0E6FFAC0EE66E360EE66E27EC0AF087
:1025D000F56E060EE15EF5501200D9CFE6FFE1CFB1
:1025E000D9FF040EE126DE6ADD6A020EDB6A030E05
:1025F000DB6A01016151621126E02D0E2B6E2C6AFF
:1026000061C11DF062C11EF02BC022F02CC023F06E
:10261000BFEC1CF01DC0DEFF1EC0DDFFDECFE6FFFD
:10262000DDCFE6FF61C1E6FF62C1E6FF730EE66E35
:10263000360EE66E27EC0AF0F56E060EE15EF550FA
:102640000101616B626B0101635164112AE02D0E7F
:102650002B6E2C6A63C11DF064C11EF02BC022F0EA
:102660002CC023F0BFEC1CF0020E1DC0DBFF030EDC
:102670001EC0DBFF020EDBCFE6FF030EDBCFE6FF63
:1026800063C1E6FF64C1E6FF380EE66E360EE66E05
:1026900027EC0AF0F56E060EE15EF5500101636B62
:1026A000646B07010951071902E10A5108190EE08C
:1026B00007C7E6FF08C7E6FF220EE66E360EE66E97
:1026C00027EC0AF0E552E552E552E55207C709F753
:1026D00008C70AF75DC10BF75EC10CF75FC10DF7C4
:1026E00060C10EF7D9CFE1FFE552E7CFD9FF120065
:1026F000C4EC0FF0F3CF07F7F4CF08F7190EE66E2E
:10270000380EE66E27EC0AF0E552E5520701010E9D
:10271000071901E1085108E1160EE66E380EE66E63
:1027200027EC0AF0E552E5520701020E071901E114
:10273000085108E1130EE66E380EE66E27EC0AF03B
:10274000E552E5520701030E071901E1085108E1BE
:10275000100EE66E380EE66E27EC0AF0E552E552F2
:102760000701040E071901E1085108E10D0EE66E9C
:10277000380EE66E27EC0AF0E552E5520701050E29
:10278000071901E1085108E10A0EE66E380EE66EFF
:1027900027EC0AF0E552E5520701060E071901E1A0
:1027A000085108E1070EE66E380EE66E27EC0AF0D7
:1027B000E552E5520701070E071901E1085108E14A
:1027C000040EE66E380EE66E27EC0AF0E552E5528E
:1027D00001015D6B5E6B01015F6B606B010121ADFF
:1027E00051D090EC1DF064EC1DF0010140A149D0E6
:1027F000200EE66E010EE66E7BEC18F0E552E55217
:102800000701010E071901E1085105E0020E071941
:1028100001E1085101E137D80701030E071901E171
:10282000085105E0040E071901E1085101E13DD905
:102830000701050E071901E1085105E0060E071909
:1028400001E1085101E100DA0701070E071901E172
:10285000085101E1B9DA0701080E071901E1085131
:1028600005E0090E071901E1085101E1C5DA9DEC07
:102870001DF0000EE66E010EE66EB5EC18F0E552A6
:10288000E552ACD7120001017F0E046F066F060EF1
:102890000101821901E1835101E1EAD0050E82199B
:1028A00001E1835101E1C7D0040E821901E1835196
:1028B00001E197D0030E821901E1835101E176D045
:1028C000020E821901E183514CE0010E821901E1EF
:1028D00083512BE0825101E1835101E0E5D00101F8
:1028E000010E046F066F01015E51000AE8AE02D0CE
:1028F0005E3505D01E0ED8805D55000E5E5514E283
:102900005D6B5E6B01015F6B606B0701010E071968
:1029100001E1085105E1020E0101826F836B04D0D1
:10292000010E0101826F836BBFD00101F70E046FAE
:10293000070E066F01015E51000AE8AE02D05E3557
:1029400005D0820ED8805D55000E5E5509E25D6BA4
:102950005E6B01015F6B606B030E0101826F836B25
:10296000A3D00101F70E066F070E046F010160513D
:10297000000AE8AE02D0603505D0820ED8805F55DF
:10298000000E605512E2EF0EE66E370EE66E27EC93
:102990000AF0E552E55201015D6B5E6B01015F6B70
:1029A000606B030E0101826F836B7ED00101010E0B
:1029B000046F066F01015E51020AE8AE02D05E3577
:1029C00005D0260ED8805D55020E5E5509E25D6B7E
:1029D0005E6B01015F6B606B040E0101826F836BA4
:1029E00063D00101010E096F0101842B000E8523C4
:1029F0008551000AE8AE02D0853505D03C0ED8805E
:102A00008455000E855516E201017F0E096F0701FE
:102A1000010E071901E1085107E1060E0101826F5D
:102A2000836B846B856B06D0050E0101826F836B0F
:102A3000846B856B39D00101F70E066F070E046FAA
:102A400001016051000AE8AE02D0603505D0820E67
:102A5000D8805F55000E60550AE201015D6B5E6B28
:102A600001015F6B606B630E0101826F836B1CD091
:102A70000101F70E046F070E066F01015E51000A97
:102A8000E8AE02D05E3505D0820ED8805D55000ECE
:102A90005E5509E25D6B5E6B01015F6B606B630EFF
:102AA0000101826F836B00D0120001017F0E046F61
:102AB000066F010E0101821901E1835101E198D0F5
:102AC000020E821901E1835168E0825101E18351D4
:102AD00001E0B9D00101010E046F066F7F0E096F8E
:102AE0000101842B000E852384C1E6FF85C1E6FF2A
:102AF000E00EE66E370EE66E27EC0AF0E552E55280
:102B0000E552E552460E010185AF02D0D89003D0C0
:102B1000845D000E855904E201015A0E096F03D04D
:102B200001017F0E096F8850020B07E10101265158
:102B30007F0803E201017F0E096F8750040B07E154
:102B40007F0E0101265D03E201017F0E096F010185
:102B50005E51040AE8AE02D05E3505D01A0ED88068
:102B60005D55040E5E5518E201017F0E096F0101EB
:102B70005D6B5E6B01015F6B606B0701050E0719F2
:102B800001E1085105E1020E0101826F836B04D05F
:102B9000010E0101826F836B56D00101F70E046FA5
:102BA000070E066F7F0E096F01015E51000AE8AE45
:102BB00002D05E3505D0780ED8805D55000E5E558A
:102BC00016E2C00EE66E370EE66E27EC0AF0E5520E
:102BD000E55201015D6B5E6B01015F6B606B010192
:102BE0007F0E046F066F630E0101826F836B2BD023
:102BF0000101F70E066F070E046F7F0E096F0101CA
:102C00006051000AE8AE02D0603505D0780ED88059
:102C10005F55000E605516E2C00EE66E370EE66E8A
:102C200027EC0AF0E552E55201015D6B5E6B010194
:102C30005F6B606B01017F0E046F066F630E010115
:102C4000826F836B00D0120001017F0E046F066F4C
:102C5000010E0101821901E1835101E189D0020EC7
:102C6000821901E1835159E0825101E1835101E070
:102C7000AAD00101010E046F066F7F0E096F0101DA
:102C8000842B000E8523460E85AF02D0D89003D04A
:102C9000845D000E855904E201015A0E096F03D0CC
:102CA00001017F0E096F8850020B07E101012651D7
:102CB0007F0803E201017F0E096F8750040B07E1D3
:102CC0007F0E0101265D03E201017F0E096F010104
:102CD0005E51030AE8AE02D05E3505D0E80ED8801A
:102CE0005D55030E5E5518E201017F0E096F01016B
:102CF0005D6B5E6B01015F6B606B0701050E071971
:102D000001E1085105E1010E0101826F836B04D0DE
:102D1000020E0101826F836B56D00101F70E046F22
:102D2000070E066F7F0E096F01015E51000AE8AEC3
:102D300002D05E3505D0780ED8805D55000E5E5508
:102D400016E2C00EE66E370EE66E27EC0AF0E5528C
:102D5000E55201015D6B5E6B01015F6B606B010110
:102D60007F0E046F066F630E0101826F836B2BD0A1
:102D70000101F70E066F070E046F7F0E096F010148
:102D80006051000AE8AE02D0603505D0780ED880D8
:102D90005F55000E605516E2C00EE66E370EE66E09
:102DA00027EC0AF0E552E55201015D6B5E6B010113
:102DB0005F6B606B01017F0E046F066F630E010194
:102DC000826F836B00D012000101430E046F066F07
:102DD0007F0E096F01015E51030AE8AE02D05E3535
:102DE00005D0C00ED8805D55030E5E5504E201018A
:102DF0007F0E046F066F12000A0E0101821901E1B5
:102E0000835101E176D0010E821901E1835150E036
:102E1000020E821901E183512BE0825101E18351BD
:102E200001E06CD001013C0E046F066F01015E51A0
:102E3000020AE8AE02D05E3505D0CE0ED8805D55D0
:102E4000020E5E5514E25D6B5E6B01015F6B606BA1
:102E50000701080E071901E1085105E1020E010101
:102E6000826F836B04D0010E0101826F836B46D0A9
:102E70000101F70E046F070E066F01015E51010A92
:102E8000E8AE02D05E3505D00E0ED8805D55010E3D
:102E90005E550DE25D6B5E6B01015F6B606B010166
:102EA0007F0E046F066F0A0E0101826F836B26D0BE
:102EB0000101F70E066F070E046F01016051010A50
:102EC000E8AE02D0603505D00E0ED8805F55010EF9
:102ED00060550EE201015D6B5E6B01015F6B606B23
:102EE00001017F0E046F066F0A0E0101826F836B72
:0E2EF00005D001017F0E066F046F00D01200A6
:022EFE00DACF29
:102F0000E4FFE2CFDAFFE9CFE4FFEACFE4FFE652E5
:102F1000F2A202D094D802D09EB6C0D8E552E5CF36
:102F2000EAFFE5CFE9FFE5CFDAFF1100E66A010E1F
:102F3000E66E050EE66EDBEC1DF0E552E552E5525D
:102F40001200070EB46E000E886E876E866E856E58
:102F5000846E836E826E816E806E916E906E8F6EC7
:102F60008E6E8D6E8C6E8B6E8A6E896E2F0E926E4B
:102F700093689C0E946E956A966A9768986A0E0E8E
:102F80009A6E9968C16AF19EB0989C8EA26A9F6AF7
:102F9000A06A9D6AA36AA56AC9DF9F86D08E9E96A5
:102FA0009D869382F06AF288F09EF098F192F09AF2
:102FB000F16AF28CF28E1200D9CFE6FFE1CFD9FF91
:102FC000E652BFDF0101409740990101040E726F84
:102FD000010E736FDF6A100EDF5C0AE2DF50EA6AEF
:102FE0007225E96E7351EA227F0EEF6EDF2AF3D766
:102FF00001011D6B010E1E6FC20E1F6F0101408586
:103000000101226B236B0101006B026B036B010E4C
:10301000D56E320ED76ECF0ED66ED59E000EE66EF2
:10302000010EE66EA2D8E552E552E552E552E7CF31
:10303000D9FF120082828088949292981200F292B4
:103040000101200E6E6F9F86010140A906D001018B
:10305000E00E6B6F000E6C6F05D00101C00E6B6F40
:10306000000E6C6F010140A1407940A706D001011C
:10307000800E696F000E6A6F05D00101A00E696FA6
:10308000000E6A6FC9CF6FF169C1E9FF6AC1EAFF3B
:10309000692B000E6A23EF50C96E12009E96C9CFAD
:1030A0006FF101016E51000824E26BC1E9FF6CC1B0
:1030B000EAFF6B2B000E6C236FC1EFFF69C1E9FFC4
:1030C0006AC1EAFF692B6A23EFCF6FF16FC1C9FFB5
:1030D0006E076E510DE1010140810101020E1E6F6C
:1030E00001014093320ED76ECF0ED66EF294D58E7C
:1030F00001D0C96A1200D9CFE6FFE1CFD9FF0101A3
:1031000040A12FD040A906D00101C00E676F000E6C
:10311000686F05D00101E00E676F000E686FFD0E4D
:10312000DBCF70F1FE0EDBCF71F16D6B200E6D5DAC
:1031300014E26D51EA6A6725E96E6851EA22EF50A0
:10314000E66E70C1E9FF71C1EAFF702B000E7123BA
:10315000E552E750EF6E6D2BE9D79D960101409146
:103160009D86E552E7CFD9FF1200D9CFE6FFE1CF28
:10317000D9FF010140B33AD0020E01011E5D01E109
:1031800080D80101159F010140A706D00101A00EC2
:10319000676F000E686F05D00101800E676F000E2B
:1031A000686FFD0EDBCF72F1FE0EDBCF73F16D6B3E
:1031B000200E6D5D14E272C1E9FF73C1EAFF722B4C
:1031C000000E7323EF50E66E6D51EA6A6725E96ED3
:1031D0006851EA22E552E750EF6E6D2BE9D79D96D4
:1031E0000101407740839D8601011D2BE552E7CF09
:1031F000D9FF12009D96010140919D861200D9CF02
:10320000E6FFE1CFD9FF0001166BD950FD0FE96E43
:10321000FF0EDA20EA6E010EEE1801E1ED5002E138
:10322000168101D0BA6AD950FB0FE96EFF0EDA2081
:10323000EA6E010EEE1801E1ED5002E1168301D0B5
:10324000B76AD950F90FE96EFF0EDA20EA6E010E67
:10325000EE1801E1ED5002E1168501D0736AD950F4
:10326000F70FE96EFF0EDA20EA6E010EEE1801E1AB
:10327000ED5002E1168701D0706AE552E7CFD9FF21
:10328000120001011C6B176BC6AE04D0C69E010E66
:10329000176F0ED0F150800B06E0F250080B03E0E0
:1032A000020E176F05D0F0A603D0909E030E176F85
:1032B000250EC614250805E0010E1C6FC6CF17F1B8
:1032C00068D0C55005E0020E1C6FC5CF17F161D064
:1032D000D0BE05D0030E1C6FD0CF17F15AD09DB6CB
:1032E00005D0040E1C6F9DCF17F153D09C5005E004
:1032F000050E1C6F9CCF17F14CD0080E9F5C05E0AB
:10330000060E1C6F9FCF17F144D0A25005E0070EA8
:103310001C6FA2CF17F13DD0A55005E0080E1C6F21
:10332000A5CF17F136D0500EF214500805E0090E63
:103330001C6FF2CF17F12DD0470EF11405E00A0EE5
:103340001C6FF1CF17F125D0C00EF01405E00B0E65
:103350001C6FF0CF17F11DD092A805D00C0E1C6F7A
:1033600092CF17F116D093B005D00D0E1C6F93CFEE
:1033700017F10FD03E0E94141C0805E00E0E1C6FC2
:1033800094CF17F106D097BE04D00F0E1C6F97CFC5
:0433900017F112001F
:0C3394009EB802D0FDD7FCD71200D9CFA4
:1033A000E6FFE1CFD9FFFE0EDBCFE6FF2CEC1CF0F1
:1033B000E5520D0EAD6EEEDFE552E7CFD9FF1200FC
:1033C000D9CFE6FFE1CFD9FF0701D950FD0FE56F57
:1033D000FF0EDA20E66F010EEA6AE525E96EE65196
:1033E000EA22EF50E66E2CEC1CF0E552E5C7E9FF4F
:1033F000E6C7EAFFEF50E66E2CEC1CF0E5520D0E2E
:10340000AD6EC8DFE552E7CFD9FF1200D9CFE6FF96
:10341000E1CFD9FFFD0EDBCF2BF0FE0EDBCF2CF082
:103420002D6A2BC0E6FF2CC0E6FF2DC0E6FF950EEF
:10343000E66E070EE66E5FEC1EF0F56E050EE15EC1
:10344000F550950EE66E070EE66E78EC1EF0E5522E
:10345000E552F3CFE9F7F4CFEAF70701EA51000AA2
:10346000E8AE02D0EA3505D0500ED880E955000EFE
:10347000EA5503E2500EE96FEA6BEB6BEC6BEC5133
:10348000EA19E8AE02D0EA3504D0E951EB5DEA5121
:10349000EC590EE2950EEB25E96E070EEC21EA6E73
:1034A000EF50AD6E77DF0701EB2B000EEC23E7D773
:1034B000E552E7CFD9FF1200D9CFE6FFE1CFD9FF20
:1034C0000701E76B1A0EE75D11E2FD0EDBCFE9FFA6
:1034D000DB2AFE0EDBCFEAFF01E3DB2AEF50E66ECC
:1034E0002CEC1CF0E5520701E72BECD70D0EAD6E6E
:1034F00051DFE552E7CFD9FF12000701200EE56F3B
:10350000010EE66F010120510701ED6FEE6BEF51E7
:10351000ED1902E1F051EE1918E0010140A502D0C9
:1035200040950FD0EFC7E6FF2CEC1CF0E552EDC73D
:10353000E6FF2CEC1CF0E5520D0EAD6E2BDF010109
:103540004095EDC7EFF7EEC7F0F70701EF2B000E40
:10355000F023F051000AE8AE02D0F03505D0FF0E9E
:10356000D880EF55000EF05502E2EF6BF06B1200C1
:10357000150EE66E3C0EE66E08EC1EF0E552E552C6
:10358000320EE66ED9EC1EF0E5521200D9CFE6FFFE
:10359000E1CFD9FFFE0EDBCFE8F7E552E7CFD9FF49
:1035A0001200D9CFE6FFE1CFD9FF020EE126FE0ED1
:1035B000DB507F0BFE0BFD0BE66EE8C7E6FF34EC3D
:1035C0001EF0E552E5520A0EE66EF7EC1EF0E552EB
:1035D0000AEC1FF002EC1FF0000901E0FBD786ECBB
:1035E0001EF007EC1FF0C4502D6E2DC02EF02D6A7A
:1035F000C35000012D102B6F2EC02CF02BC0DEFF0E
:103600002CC0DDFFDECF2BF0DDCF2CF02BC0F3FF85
:103610002CC0F4FF00D0D9CFE1FFE552E7CFD9FFAE
:02362000120096
:0E3622004175746F6E6F6D6F7573204D6F6420
:1036300065203D2025640D0052696768742050752F
:103640006C73657320506572205365636F6E6420E0
:103650003D202564202020526967687420466565F6
:103660007420706572207365636F6E64203D202541
:10367000640A004C6566742050756C736573205045
:103680006572205365636F6E64203D2025642020A1
:10369000204C6566742046656574207065722073E1
:1036A00065636F6E64203D2025640A004C454654D6
:1036B0005F4452494C4C2045786365737369766565
:1036C00020526576657273653A20256420416D70DD
:1036D000732E2E2E2E4E6577205370656564203D27
:1036E0002025640A004C4546545F4452494C4C2006
:1036F00045786365737369766520466F727761728A
:10370000643A20256420416D70732E2E2E2E4E6556
:1037100077205370656564203D2025640A00524976
:103720004748545F4452494C4C2045786365737355
:1037300069766520526576657273653A2025642046
:10374000416D70732E2E2E2E4E6577205370656559
:1037500064203D2025640A0052494748545F445282
:10376000494C4C2045786365737369766520466FD4
:1037700072776172643A20256420416D70732E2E39
:103780002E2E4E6577205370656564203D2025649C
:103790000A0025730A004946492055736572205076
:1037A000726F636573736F7220496E697469616CBF
:1037B000697A6564202E2E2E00286E756C6C2900A7
:1037C000417263696E6720436F6D706C6574650A42
:1037D00054726176656C696E6720666173740A0065
:1037E000636F756E7465722061742025640A0047EA
:1037F0006F696E6720646F776E20746865204C6116
:103800006E650A00370A00360A00350A00340A00DD
:10381000330A00320A00310A00456E746572696E1F
:1038200067204175746F6E6F6D6F7573206D6F6477
:0338300065200010
:0C383400000EE96EEA6E040027EC1CF0A8
:10384000EA2A080EEA5CD8A41DEF1CF01200EF6A09
:10385000E93E27EF1CF01200FF0EE3CF09F0093814
:103860000F0B060FD8B2070F2A0FAD6ECAEC19F076
:1038700009500F0B060FD8B2070F2A0FAD6ECAEC16
:1038800019F0000C1200F2B4120016500F0AD8B44E
:103890001200FF0EE3CF0AF0FE0EE3CF0BF0FD0E99
:1038A000E3CF0CF0FC0EE3CF0DF00A2A16A08D8EAC
:1038B0000B2A16A28F800C2A16A48F860D2A16A614
:1038C0008F880E6A0F6A106A116A96EC1CF00A2E35
:1038D0006CEF1CF016A08D9E0B2E71EF1CF016A243
:1038E0008F900C2E76EF1CF016A48F9600000D2EF4
:1038F0007CEF1CF016A68F9800000E2E81EF1CF0B6
:10390000129000000F2E86EF1CF012920000102E75
:103910008BEF1CF012940000112E90EF1CF0129609
:10392000B8EC1CF0133E67EF1CF01200D70E136EBC
:103930000000000000000000AEEC1CF0132E98EF19
:103940001CF0D70E136E0000000000000000AEEC6B
:103950001CF0132EA3EF1CF0000012000000B1EFCA
:103960001CF0000000000000000000000000120039
:0E397000030E146E0000142EBAEF1CF01200AD
:02397E00256AB8
:1039800023AEC8EF1CF0226C231EE86A2322251EFA
:103990001EAED0EF1CF01D6C1E1EE86A1E22251EF6
:1039A0009FEC1EF01EBEE0EF1CF025AE000C1D6C5F
:1039B0001E1EE86A1E22196C1A1EE86A1A22000CE2
:1039C00025BED7EF1CF02688FF0C1EC02AF01DC0B4
:1039D00029F01D502202F4CF1CF0F3CF1BF01E5033
:1039E0002302F4CF1EF0F3CF1DF02202F3501C2669
:1039F000F4501D22E86A1E2229502302F3501C268F
:103A0000F4501D22E86A1E2223AE0BEF1DF0295050
:103A10001D5E2A501E5A2AAE000C22501D5E2350F5
:043A20001E5A000C1E
:0C3A24000E0EF66E080EF76E000EF86E27
:103A300001010900F550796F0900F5507A6F03E133
:103A4000796701D03DD00900F550746F0900F55039
:103A5000756F0900F550766F09000900F550E96EA1
:103A60000900F550EA6E090009000900F550776F6A
:103A70000900F550786F09000900F6CF7BF1F7CF08
:103A80007CF1F8CF7DF174C1F6FF75C1F7FF76C107
:103A9000F8FF0101775302E1785307E00900F55080
:103AA000EE6E7707F8E27807F9D77BC1F6FF7CC1A5
:103AB000F7FF7DC1F8FF01017907000E7A5BBFD7E0
:023AC0001200F2
:0E3AC20002D890EF1DF00101650508E181A416
:103AD00006D0612B000E62235D2B5E23656B655162
:103AE00009E181B407D0612B000E62235D2B5E23B8
:103AF000010E656F660508E181A606D0632B000EF6
:103B000064235F2B6023666B665109E181B607D0A1
:103B1000632B000E64235F2B6023010E666F12007F
:103B200088B604D00101592B000E5A2388B404D062
:103B300001015B2B000E5C2312000101596B5A6BD3
:063B40005B6B5C6B1200E0
:0A3B460001017F0E096F26C109F18D
:103B50008850020B07E1010126517F0803E20101B1
:103B60007F0E096F8750040B07E17F0E0101265D70
:103B700003E201017F0E096F010122AD02D08C84A6
:103B80008D942251800B05E08850020B02E08C944A
:103B90008D842351010B05E12351100B02E1000E2E
:103BA00001D0010E010806E101017F0E046F066FCE
:063BB000086F096F12000E
:0A3BB600D9CFE6FFE1CFD9FF3F0EA3
:103BC000C716C66AFE0EDB50C612FC0EDB50C712CB
:103BD000FD0EDB50030A09E0010A04E0020A06E1D7
:103BE000C78C04D0C78CC68801D0C688FE0EDB50B7
:103BF000050A03E0010A04E1928A9486C79E01D077
:103C00009496949A9488C68AE552E7CFD9FF120019
:103C1000D9CFE6FFE1CFD9FFAC6AAB6AFE0EDBB0CD
:103C2000AC88DBA202D0AC8CAB8CDBB4AC8EDBA658
:103C300002D0AB8801D0AB8ADBA802D0AC8401D023
:103C4000AC94DBAC02D09D8A01D09D9ADBAE02D051
:103C50009D8801D09D98FD0EDB50AF6EAC8AAB8E77
:083C6000E552E7CFD9FF120085
:083C6800D9CFE6FFE1CFD9FF3F
:103C7000C26AC16AC06AFD0EDB407F0B3C0BC26E9C
:103C8000FE0EDB500F0B2B6EFD0EDB38F00B300BF6
:103C90002B10C16EFE0EDB380F0B070B2B6EFE0ECA
:103CA000DB50800B2B10C06EFD0EDBAE03D09E9C54
:0E3CB0009D8CF28CC280E552E7CFD9FF120046
:023CBE00FB0EFB
:103CC000E3CFF6FFFC0EE3CFF7FFFD0EE3CFF8FFE7
:103CD000FE0EE3CFE9FFFF0EE3CFEAFFE9CFF3FFEC
:103CE000EACFF4FF0900F5CFEFFFEE66FBD7120035
:103CF000FE0EE3CFE9FFFF0EE3CFEAFFF36AF46ABB
:0C3D0000EE5203E0F34AF42AFBD7120055
:043D0C00D9CFE6FF26
:103D1000E1CFD9FF020EE126C350DF6E010EC4CF02
:103D2000DBFFDECF2BF0DDCF2CF02BC0F3FF2CC060
:0E3D3000F4FFD9CFE1FFE552E7CFD9FF120033
:023D3E001A6AFF
:103D4000196A100EE76ED8901D361E3619361A36CF
:103D50002250195C23501A5805E32250195E235053
:0A3D60001A5A1D2AE72EF0D71200B0
:063D6A00DCEC17F074EC24
:103D700010F001014091010140A107D095EC0CF039
:103D8000010121AD02D078EC13F061EC1DF0F3D706
:023D900012001F
:0E3D920016EE00F026EE00F0F86A269CA68ED3
:103DA000A69C1AEC1CF012EC1DF0B5EC1EF0F9D735
:023DB0001200FF
:0E3DB200FF0EE350316E480E01D04C0EE76E4E
:103DC000E72EFED7E76AE72EFED7312EF7D70000A1
:023DD0001200DF
:0E3DD2001A6A080EE76ED8901E361A36235075
:0E3DE0001A5C02E31A6E1E2AE72EF7D71200B5
:023DEE00FF0EC6
:103DF000E350E84E1200000000D000D000D0E82EC2
:043E0000FAD71200DB
:0A3E0400C250020B01E0010E120093
:023E0E00C29060
:043E10009D9C120063
:043E1400C282120054
:083E18000000000000000000A2
:063E20000000000000009C
:0A3E26000101007F007F0000000092
:103E30000000000000000000000000000000000082
:103E4000000000000101020202030304040405054E
:103E500005060606060707070808080909090A0AE9
:103E60000A0B0B0B0C0C0D0D0D0E0E0F0F1010117D
:103E700011111212131414151516161718181919F2
:103E80001A1B1C1C1D1E1F1F202122232425262730
:103E900028292A2B2C2D2E303132343537383A3C14
:103EA0003D3F41434547494B4E505356585B5F6237
:0B3EB00065696D71757F7F00000000E8
:043EBB000000000003
:013EBF000002
:033EC000000000FF
:043EC30000000000FB
:020000040030CA
:0E000000FFFEFEFCFFFEFBFFFFFFFFFFFFFF0A
:00000001FF
